:020000040800F2
:10000000581A01247D04000839860008DB7E0008A8
:1000100019850008F90E000895C2000800000000CC
:10002000000000000000000000000000BD03000808
:10003000451400080000000019040008E9A40008A5
:100040009704000897040008970400089704000824
:100050009704000897040008970400089704000814
:10006000970400089704000897040008011000088E
:1000700097040008970400089704000897040008F4
:1000800097040008970400089704000897040008E4
:1000900097040008970400089704000897040008D4
:1000A00097040008970400089704000897040008C4
:1000B00097040008970400089704000897040008B4
:1000C0009704000897040008970400089D92000810
:1000D0009704000897040008970400089704000894
:1000E0009704000897040008000000009704000827
:1000F0009704000897040008970400089704000874
:100100009704000897040008970400089704000863
:100110009704000897040008970400089704000853
:100120009704000897040008970400089704000843
:100130009704000897040008970400089704000833
:1001400000000000000000000000000000000000AF
:100150009704000897040008970400089704000813
:100160009704000897040008970400089704000803
:100170009704000861870008970400080000000049
:1001800097040008970400089704000897040008E3
:1001900097040008970400089704000897040008D3
:1001A0009704000897040008970400080000000066
:1001B00097040008970400089704000897040008B3
:1001C00097040008970400080000000000000000E9
:1001D000000000000000000097040008000000007C
:1001E000000000000000000000000000000000000F
:1001F00000000000000000009704000897040008B9
:100200009704000897040008000000009704000805
:100210009704000897040008970400089704000852
:100220009704000800000000970400080000000088
:1002300097040008970400080000000097040008D5
:100240009704000897040008970400089704000822
:100250009704000897040008970400089704000812
:100260009704000897040008970400089704000802
:100270009704000897040008970400080000000095
:1002800097040008970400089704000897040008E2
:100290000000000097040008970400080000000018
:1002A0000000000097040008970400089704000865
:1002B00097040008970400089704000897040008B2
:1002C0009704000861A600089704000800F002F8EF
:1002D00000F064F80AA090E8000C82448344AAF17C
:1002E0000107DA4501D100F059F8AFF2090EBAE87A
:1002F0000F0013F0010F18BFFB1A43F0010318475A
:10030000E0240100102501000A444FF0000C10F811
:10031000013B13F0070408BF10F8014B1D1108BF83
:1003200010F8015B641E05D010F8016B641E01F823
:10033000016BF9D113F0080F1EBF10F8014BAD1C73
:100340000C1B09D16D1E58BF01F801CBFAD505E091
:1003500014F8016B01F8016B6D1EF9D59142D6D3EB
:10036000704700000023002400250026103A28BF13
:1003700078C1FBD8520728BF30C148BF0B60704717
:10038000752900F05981732900F0A583002070477A
:100390001FB510F0D7FD1FBD10B510BD00F006FC55
:1003A0001146FFF7F5FF0DF0ADFD00F024FC03B49E
:1003B000FFF7F2FF03BC00F027FC00002C4B19688C
:1003C0000868B0E8F04F80F30988BFF36F8F4FF0F3
:1003D000000080F3118870470000000008480068A2
:1003E000006880F308884FF0000080F3148862B63C
:1003F00061B6BFF34F8FBFF36F8F00DF00BF00BF49
:1004000008ED00E0DFF80C00016841F470010160C4
:10041000704700BF88ED00E0EFF30980BFF36F8FF6
:10042000134B1A681EF0100F08BF20ED108A20E948
:10043000F04F106009B44FF0500080F31188BFF303
:100440004F8FBFF36F8F0FF00FFE4FF0000080F360
:10045000118809BC19680868B0E8F04F1EF0100F49
:1004600008BFB0EC108A80F30988BFF36F8F704724
:10047000B4460024EFF30580704700000948804728
:1004800009480047FEE7FEE7FEE7FEE7FEE7FEE776
:10049000FEE7FEE7FEE7FEE704480549054A064B8E
:1004A00070470000A1A50008CD02000858060124ED
:1004B000581A0124580A0124580A012453EA020C4C
:1004C00000F069802DE9F04B4FF00006002B1FBFB4
:1004D000B3FA83F503FA05F424FA05F65E4012BF79
:1004E0001643B2FA82F502FA05F4C5F120051EBFE3
:1004F00022FA05FC44EA0C04203556EA044C4FEA83
:10050000144418BF641C4FF000084FF000099042DB
:1005100071EB030C39D3002919BFB1FA81F701FA45
:1005200007F6B0FA80F700FA07F6C7F120071EBFFA
:1005300020FA07FC46EA0C062037B6FBF4FCA7EBD2
:100540000507103F07F01F0BCBF120060CFA0BFB41
:100550002CFA06F644BFB3460026202FA4BF5E4601
:100560004FF0000B5BEA060C08BF4FF0010B19EBD4
:100570000B09ABFB027C48EB0608C01B06FB02CC58
:100580000BFB03CC71EB0C01C1E70B460246414665
:100590004846BDE8F08B13B54FF000004FF0000166
:1005A000AFF30080BDE81C40704700000FB47CB57D
:1005B0000C0009AA009001D02044401E084B7B4447
:1005C00069460190089800F054FA05461CB10020D5
:1005D000694600F061FA28467CBC5DF814FB000017
:1005E000E104000070B50C460546012A05D02878C4
:1005F000800600D5EA69002302E0012305E05B1CC8
:10060000934202D2E05C0028F9D1A869E618C01A2A
:10061000A861286A184428622846AFF3008004E0E5
:10062000D5E9012114F8010B9047B442F8D32846CC
:10063000AFF3008070BD00002DE9F04106460024B4
:1006400010687529314616A510D0AFF30080002838
:1006500002DA404213A507E031688A0701D512A5E6
:1006600002E0490704D511A5012401E0AFF30080A1
:1006700000210A2206F1240709E0B0FBF2FCB0FBDE
:10068000F2F302FB1C00303078541846491C002855
:10069000F3D123462A463046BDE8F04100F08BB93D
:1006A000000000002D0000002B00000020000000D2
:1006B0002DE9F0410F460546002028622846E968EA
:1006C000884770B3252805D0D5E901219047286ACD
:1006D000401CF2E7E9682846002688476C28044653
:1006E0000AD0682C08D04C2C35D06A2C31D0742C10
:1006F00031D07A2C2FD016E0E96806462846884784
:10070000B042044608D16C2E23D04FF480662846B0
:10071000E9688847044606E06C2E03D04FF48076E3
:1007200001E01EE04026E4B1A4F14100192802D8FE
:10073000203446F400663A46214628462E60FFF7EC
:100740001FFE60B1012808D0FF1D27F007070837FA
:10075000B4E78026DBE70026D9E73F1DAEE7204659
:10076000B2E7286ABDE8F08130B505460B462A4657
:1007700013F8014B12F8010B08B1A042F8D01CB1DC
:10078000002802D06D1CF1E7284630BD10B5431C8F
:1007900002E010F8011B71B18107FAD14FF001326C
:1007A00002C88C1A8C4314EAC211F9D0C01A0A0686
:1007B00003D0C01E10BDC01A10BD0A0401D0801E97
:1007C00010BD0902FCD0401E10BD032A40F230804B
:1007D00010F0030C00F0158011F8013BBCF1020F82
:1007E000624498BF11F801CB00F8013B38BF11F803
:1007F000013BA2F1040298BF00F801CB38BF00F81A
:10080000013B11F0030300F06780083AC0F0088054
:1008100051F8043B083A51F804CBA0E80810F5E77A
:10082000121D5CBF51F8043B40F8043BAFF300805D
:10083000D20724BF11F8013B11F801CB48BF11F8D2
:10084000012B24BF00F8013B00F801CB48BF00F8A2
:10085000012B7047431A28BF9A427FF6B6AF032A8E
:100860001044114440F2268010F0030F1EBF11F80F
:10087000013D521E00F8013D10F0030F7FF4F6AF6A
:1008800011F0030300F03E81083AC0F00B8051F8EC
:10089000043D083A51F804CD40F8043D40F804CD39
:1008A000FFF7F3BF121D5CBF51F8043D40F8043D53
:1008B000AFF30080D20724BF11F8013D11F801CD3C
:1008C00048BF11F8012C24BF00F8013D00F801CD0C
:1008D00048BF00F8012C704710B5203AC0F00B80DB
:1008E000B1E81850203AA0E81850B1E81850A0E834
:1008F0001850BFF4F5AF5FEA027C24BFB1E818508E
:10090000A0E8185044BF18C918C0BDE810405FEAFD
:10091000827C24BF51F8043B40F8043B08BF704779
:10092000D20728BF31F8023B48BF11F8012B28BF7E
:1009300020F8023B48BF00F8012B704702F0FF038C
:1009400043EA032242EA024200F008B94FF00002F3
:1009500000B5134694469646203922BFA0E80C50B5
:10096000A0E80C50B1F12001BFF4F7AF090728BF90
:10097000A0E80C5048BF0CC05DF804EB890028BF0C
:1009800040F8042B08BF704748BF20F8022B11F035
:10099000804F18BF00F8012B7047704770477047B1
:1009A00010B500F0FBF8006810BD10B5044600F06B
:1009B000F5F8046010BD2DE9F0470D4699469246C2
:1009C000044600F124080168880604D5E06921F096
:1009D0001001216000E00120A84201DD471B00E07A
:1009E0000027A1697A1902EB0900081AA061207892
:1009F000C00602D42046AFF30080002608E0D4E908
:100A000001211AF806009047206A401C761C2062DB
:100A10004E45F4DB2078C0060AD52046AFF30080AF
:100A200006E0D4E9012130209047206A401C206272
:100A3000381EA7F10107F4DC07E0D4E9012118F81A
:100A400005009047206A401C2062281EA5F1010580
:100A5000F3DC2046AFF300802078000602D50220A8
:100A6000BDE8F0870120FBE701694A1C02610878B4
:100A7000704700B58FB0CDE90131002105910549DE
:100A80007944CDE9031011466846FFF711FE0FB017
:100A900000BD0000E5FFFFFF0A6802F8010B0A60D5
:100AA0007047D1E900239A4202D2531C0B601070A8
:100AB000704710B5436913B1AFF3008001E0FFF751
:100AC00091FD012010BD127800F124010A7000226E
:100AD0004A700122EDE711684FF0FF32E9E7431A4F
:100AE00028BF9A427FF6F8AE104410F0030F11446D
:100AF0001EBF11F8013D521E00F8013D10F0030F1A
:100B00007FF4F6AF103AC0F00A8010B531E9185002
:100B1000103A20E91850BFF4F9AFBDE81040530770
:100B200024BF31E9081020E9081044BF51F8043D02
:100B300040F8043D12F0030F08BF7047D20728BFEA
:100B400031F8023D48BF11F8012C28BF20F8023DC2
:100B500048BF00F8012C70474FF000020429C0F094
:100B6000128010F0030C3FF4F3AECCF1040CBCF196
:100B7000020F18BF00F8012BA8BF20F8022BA1EB31
:100B80000C01FFF7E5BE5FEAC17C24BF00F8012B32
:100B900000F8012B48BF00F8012B70470048704750
:100BA000F405012400487047F40501247546FFF759
:100BB000F9FFAE4605006946534620F0070085461A
:100BC00018B020B5FFF768FCBDE820404FF00006E4
:100BD0004FF000074FF000084FF0000B21F0070125
:100BE000AC46ACE8C009ACE8C009ACE8C009ACE868
:100BF000C0098D46704710B50446AFF3008020460B
:100C0000BDE81040FFF7D3BB01491820ABBEFEE79B
:100C1000260002007047000010B532490446006803
:100C2000884202D0304A904202D1D1F8080302E053
:100C30002E48D0F8080310F4403F10D005F0FAFD1C
:100C40006168B1F5803F06D0B1F5003F03D0B1F542
:100C5000403F26D101E0090C17E0800821E0002187
:100C60004FF4002004F09EFE61688A03920B18D1B5
:100C70008A140C2A15D2DFE802F0140606060606CE
:100C8000060B0D0F1113890C4900B0FBF1F008E0C1
:100C9000000906E0400904E0800902E0C00900E024
:100CA000000A13494008884204D82068816821F46A
:100CB000407108E00F49884207D82068816821F414
:100CC000407141F48071816010BD0B4988422068F9
:100CD000816804D821F4407141F40071F3E741F4D4
:100CE0004071F0E7002002400021024000600258FD
:100CF000105E5F0020BCBE0040787D012DE9F04110
:100D00000027044600680D4607F064F9064620688F
:100D100007F05CF930435DD020682F4EC16889012F
:100D200005D5617E012902D1217E01290BD0022D3A
:100D30001DD0206807F04EF9B8B120688168C1F372
:100D4000400169B111E02549012502E08F4232D20C
:100D50007F1C0268D2435206F8D440210160E8E7C4
:100D60008168314041F010018160012D11D020686F
:100D700007F02CF948B120688168C1F3400121B91E
:100D80008168314041F020018160022D08D0032D9F
:100D900004D0042503F05EFA064617E00C25F9E7B7
:100DA0000825F7E703F056FA801B05280ED92068BE
:100DB000806828420AD0206E40F010002066606EE5
:100DC00040F0010060660120BDE8F0812068806885
:100DD0002842E7D10020F7E7C0FFFF7F00DC0C00CE
:100DE00070B50446006881688268C1F3400112F062
:100DF000010F28D039BB816801F00D01012914D100
:100E00008168124A1140891C8160216803200860B2
:100E100003F020FA054612E003F01CFA401B0228FA
:100E20000DD920688068C00709D0206E40F01000FE
:100E30002066606E40F001006066012070BD206891
:100E40008068C007E8D1002070BD0000C0FFFF7FB0
:100E500070B504460068816811F0010F40D18168C7
:100E6000204A11422DD18168D5432940491C816017
:100E700003F0F0F91C49064620681C4B884201D05B
:100E8000984201D11A4A00E01A4A9268984202F048
:100E90001F0200D0014681421DD0E2B120E08168EE
:100EA00011F0010F03D181682940491C816003F0D2
:100EB000D1F9801B02280ED920680068C043C00702
:100EC00009D0206E40F010002066606E40F00100F6
:100ED0006066012070BD20680168C943C907DED182
:100EE000002070BD3F000080002002400021024031
:100EF0000023024000630258FEE7000004280B466E
:100F000010B517DD202802D0212813D10AE09BB1AB
:100F1000072A11D109481968016099888180997957
:100F2000817107E043B1072A00D907220349184617
:100F3000FFF74BFC002010BD032010BD82460024AB
:100F40000020704707490022074810B509F0E0FD6E
:100F500008B1032010BD0549034809F0CCFD40B29B
:100F600010BD0000F4690024185D0024F461002421
:100F70000649074810B509F0BEFD08B1032010BDB1
:100F8000034809F091FD40B210BD0000F461002457
:100F9000185D00240020704770B50D4610B1B5F5FE
:100FA000006F01D9032070BDEFF3108472B61249AF
:100FB00091F89C32D1F8D422032B01EB8201D1F8B5
:100FC000C01205D121B1D1F8141219B1012010E0DD
:100FD00003200EE025B12A4601460848FFF73AFCF7
:100FE00006492A46044809F093FD10B9024809F061
:100FF00005FE84F3108870BD185D0024F469002498
:10100000014802F061B90000545C0024294A0168DB
:1010100091423AD0274A1832914236D0254A30328E
:10102000914232D0234A483291422ED0214A603236
:1010300091422AD01F4A7832914226D01D4A9032DE
:10104000914222D01B4AA83291421ED01A4A9142A4
:101050001BD0194A1832914217D0174A30329142A8
:1010600013D0154A483291420FD0134A6032914250
:101070000BD0114A7832914207D00F4A90329142F8
:1010800003D00D4AA832914211D1CAB21823103AA6
:10109000B2FBF3F26FF30901032A02F00703074AD8
:1010A000D25CC26500D9091D81650846704721F0F0
:1010B000FF01F9E710000240100402406C2401080F
:1010C00030B5224A012301689142CAB21BD01F4C9D
:1010D0001434A14217D01D4C2834A14213D01B4C0C
:1010E0003C34A1420FD0194C5034A1420BD0174CC4
:1010F0006434A14207D0154C7834A14203D0134C7C
:101100008C34A1420CD11421114C083AB2FBF1F1FC
:101110000F4A803201F01F0504EB8101AB4010E063
:101120000C4D1824103A0D44B2FBF4F1A82D00D850
:101130000831094A01F01F0402EB8101064AA3406D
:101140008032603080E80E0030BD00000854025844
:1011500000580258F0FBFDBF0008024010B50279AC
:10116000531E072B2DD8174C0168A1421BD0154CDC
:101170001434A14217D0134C2834A14213D0114C7F
:101180003C34A1420FD00F4C5034A1420BD00D4C37
:101190006434A14207D00B4C7834A14203D0094CEF
:1011A0008C34A14203D10849074C443102E007497D
:1011B000064C443104EB8202C0E91B210121994015
:1011C000416710BD08540258FC580258FC08024000
:1011D00010B583694FF0C074826A0146002053B194
:1011E000B3F5005F15D072B1012A0CD0022A0AD0E3
:1011F000032A09D104E01AB1012A06D0022A03D138
:10120000C96AC90100D5012010BDC96AA142FAD03E
:1012100010BD002AF7D0012AF2D0022AF3D0032A07
:10122000F3D010BD2DE9F04F804E804FDFF8FC91D8
:101230001836DFF8F8A148370468856D0AF1300ADE
:10124000DFF8ECB14C45DFF8ECC1DFF8ECE16DD034
:10125000B4426BD0544569D0BC4267D0DFF8D0812E
:10126000A8F11808444561D05C455FD064455DD065
:1012700074455BD0DFF8C481444557D0DFF8BC81AA
:1012800008F11808444551D0DFF8B08108F1300862
:1012900044454BD0DFF8A48108F14808444545D0C7
:1012A000DFF8988108F1600844453FD0DFF88C8171
:1012B00008F17808444539D0DFF8808108F19008BA
:1012C000444533D0DFF8748108F1A80844452DD097
:1012D000DFF86C81444529D0DFF8648108F11408F7
:1012E000444523D0DFF8588108F1280844451DD033
:1012F000DFF84C8108F13C08444517D0DFF8408105
:1013000008F15008444511D0DFF8348108F1640831
:1013100044450BD0DFF8288108F17808444505D012
:10132000DFF81C8108F18C08444509D1D0E919483F
:10133000C4F80480C46E1CB1D0E91C48C4F8048011
:1013400004684C452ED0B4422CD054452AD0BC421F
:1013500028D0374E183EB44224D05C4522D0644594
:1013600020D074451ED0354EB4421BD0334E1836B3
:10137000B44217D0314E3036B44213D02F4E4836D7
:10138000B4420FD02D4E6036B4420BD02B4E78367F
:10139000B44207D0294E9036B44203D0274EA83627
:1013A000B44215D190F85C603F2406F01F06B440AB
:1013B000AC600468256825F4802525602EE09A60DD
:1013C0000068C160BDE8F08F99600068C260F9E70D
:1013D0001B4EB4421BD01A4E1436B44217D0184ECE
:1013E0002836B44213D0164E3C36B4420FD0144EB9
:1013F0005036B4420BD0124E6436B44207D0104E71
:101400007836B44203D00E4E8C36B442DAD190F81E
:101410005C60012406F01F06B4406C6004686360E1
:101420008368402B0368CFD1C9E700001000024059
:1014300088000240A0000240B800024010040240B0
:1014400008540258704772B6FEE730B5014690F86E
:10145000405090F84840D1E9162365F307009A42BE
:1014600064F30F2001DD012200E00022D1E91C31EC
:1014700062F317408B4201DD012100E0002161F39E
:101480001F6030BDF0B50C4607462DED068B87B0CA
:1014900091ED131AD1ED140A91ED150A21EE011AFE
:1014A00060EEA00A20EE000A71EE200A30EE800AFB
:1014B0000BF0F2FDB0EE009A3B4D4FF07E5620EE61
:1014C000090A9FED3A8ADFED3A8A10EE100AA84227
:1014D00002D3B0EE480A08E010EE100AB04202DB78
:1014E000B0EE680A01E00AF0FBFEDFED329A9FEDF4
:1014F00032AA20EE290A8DED000A94F860008DF8DA
:101500000400206A48B3D4ED160A00EE100AF8EE83
:10151000E00AB8EEC01A80EE810A00BF8DED020A23
:1015200004F16400D0EC030A20EEA00A61EE010A87
:1015300021EEA11A30EE200A30EE010A0BF0ACFDCC
:1015400020EE090A10EE100AA8420DD210EE100A81
:10155000B04205DBB0EE688A06E0B0EE4A0ADDE78D
:101560000AF0BEFEB0EE408A28EE290A8DED030A8D
:1015700094F878008DF81000206A48B1D4ED1C0A68
:1015800000EE100AF8EEE00AB8EEC00A80EE80AA7B
:101590001822694638468DED05AAFFF79DF907B078
:1015A000BDEC068BF0BD0000000080BFDB0FC9BFA3
:1015B000DB0FC93FE02E654200000000243090ECB4
:1015C000040A704710B50449044600F09BF8204611
:1015D000BDE8104000F002B8A423010870B5124C19
:1015E00000210126B2EE040A3CCCC0E90C5100F106
:1015F00024058163C16385E81C0080F8406080EDAC
:10160000110A80F84810C164016541658165026A6C
:10161000C26580F8601041668166C166C0E91C122F
:1016200080F8781070BD0000C023010870B5054631
:101630002DED028BF6EE008A90ED0B1AB0EE408A8B
:10164000F0EE680A90ED090AD0ED0C1A41EE410A5D
:1016500090ED0A2A20EE210A41EEE10A02EE010A8B
:101660000AF0DAFEDFED240A002468EE200A30EEEC
:10167000600A60EE288AB0EE680A0BF033F8B0EE2C
:10168000408AB0EE680A0BF03DFCB1EE401AB0EEB5
:10169000480A95ED092AD5ED0A1AD5ED0B2A95EDE4
:1016A0000C3A60EE023A20EE214A60EE224A20EE29
:1016B000030A00EE904A00EEA20A40EEC34A40EE52
:1016C000E13A00EE824A00EEE10A40EE824A40EE44
:1016D000E23A00EE834A01EE020A41EE214A41EE6F
:1016E000433A01EE624A85ED0C0A2435C5EC033A13
:1016F000BDEC028B70BD000035FA8E3C80ED000A17
:101700007047000070B5B7EE002A04460D462DED77
:10171000048BB2EE041AF0EE081AD1ED000A82EE44
:10172000200A80ED000A08792071D1ED020AC4ED8B
:10173000020A31EE601AC1EE210A20EE800A84ED21
:10174000030A91ED030AB5EEC00AF1EE10FA01DDCD
:10175000012000E000202074DFED2E0A95ED030A41
:101760009FED2D9A9FED2D8A20EE200AF6EE008A3D
:1017700084ED050A95ED040AB5EEC00AF1EE10FA03
:1017800002D1B0EE480A09E020EE090A0BF0BAFBDC
:1017900020EE280AF0EE000A0BF088F884ED060A25
:1017A00095ED050AB5EEC00AF1EE10FA02D1B0EEE1
:1017B000480A09E020EE090A0BF0A4FB20EE280AF3
:1017C000F0EE000A0BF072F884ED070A95ED000ABE
:1017D000D5ED060A20EE200ABDEEC00A84ED080A07
:1017E00084ED170A84ED1D0A95ED020AB5EEC00AD4
:1017F000F1EE10FA06D095ED060AB5EEC00AF1EE4C
:1018000010FA03D184ED068A84ED078ABDEC048BBF
:1018100070BD000048E17A3F35FA8E3CFFFF7F7FC4
:101820002DE9F04704464FF0010A34302DED108BBE
:10183000B0EE43EBB0EE44FAB0EE403AC0EC031A1F
:10184000207C90B3B0EE430AD4ED053AB0EEC00A66
:101850002046B4EEE30AF1EE10FA11D8B0EE600AB9
:10186000B0EEC00AB4EEE30AF1EE10FA08D8B0EE1A
:10187000410AB0EEC00AB4EEE30AF1EE10FA14D950
:101880000546466AF0EE613AB0EE424BD5E90A7081
:10189000D5F8309080462046FFF7A0FE2435A5E815
:1018A000C003C5EC033A84F848A0002094F8401027
:1018B000E9B3D4ED113A94ED034A94ED020A73EEC4
:1018C000C4BAC4ED11BAF4EEC0BAF1EE10FA05DCF8
:1018D00084F84000F0EE40BA84F848009FEDFE0A1C
:1018E0002179B6EE008A63EE00CA20EE80DA61EE5E
:1018F00000DAE1B3012968D002297ED008EE900A0F
:1019000009EE100A09EE900AF5EEC01AB7EE00CA09
:10191000F1EE10FA8046D14646460546374684F831
:1019200060A00FD1B0EE420AB5EEC00A00E049E077
:10193000F1EE10FA06D1B0EE620AB5EEC00AF1EE91
:1019400010FA73D021EEA10A62EE020AB0EE62BA7A
:10195000B0EE61AA2BEE0B1A30EE200AF0EE42AA8E
:1019600030EE010A0BF098FB8CEE001A00E02CE040
:10197000F0EE4A1AB0EE6A2A21EE810A62EE010AFE
:10198000F0EE681AB0EE492B2BEE011A60EE213A08
:1019900020EE824A21EE223A73EE843A33EE833A05
:1019A000B5EEC03AF1EE10FA41DD20EEA23A61EE5A
:1019B000213A20EE024A01EE423A40EE623A00EE4F
:1019C000E14A6FE0D4ED02BA88E7D4ED090A94ED5C
:1019D0000C0AF0EE489A94ED0A1A94ED0B3A50EE88
:1019E000A09A61EE008A23EE009A40EEC38A00EED0
:1019F000819A40EE009A87E7FFE794ED0B3AD4ED29
:101A00000C0A94ED090AF0EE489A63EE203A94ED40
:101A10000A1A40EE409A60EE038A40EE013A41EE27
:101A2000608A40EEE09AB1EE639A6DE778E020EECE
:101A3000A2AA61EE21AA20EE02BA01EE42AA40EE6D
:101A400062AA00EEE1BAB5EEC0AAF1EE10FA15D125
:101A5000B0EE6A0AB5EEC00AF1EE10FA0ED1B0EEA1
:101A60004B0AB5EEC00AF1EE10FA07D1404603EE7C
:101A7000100A03EE908A04EE108A13E06AEE0A0A56
:101A80002AEEAA0A2BEE0B1A30EE800A30EE010A7B
:101A90000BF002FBCCEE000A2AEE203A6AEEA03AE6
:101AA0002BEE204A04F14C0080EC033A94F84000FD
:101AB00080B923EE031A63EEA30A24EE040A71EE42
:101AC000200A30EE800AD4ED060AB4EEE00AF1EE08
:101AD00010FA04D8A06D84F86080093801E0A06D88
:101AE000401CA065E16D884204DDC4F85C8084F888
:101AF000608001E0216AE1650028216A4FF0000260
:101B000001DA104602E0884200DD084694F86010D1
:101B1000A06529B913EE105A13EE906A14EE107AEC
:101B20000BEE105A0AEE906A0AEE107AB5EEC0EA91
:101B3000B0EE681AF1EE10FA46464546374684F88C
:101B400078900DD1B0EE6E0AB5EEC00AF1EE10FA43
:101B500006D1B0EE4F0AB5EEC00AF1EE10FA72D01F
:101B60002079A846E8B3012870D002286DD0284615
:101B70000FEE900A00EE105A00EE908A69EE8E1A6F
:101B8000B0EE408B69EE0F0A21EE2E0A41EE4F1A9D
:101B900049EEEE0A09EE4E0A21EEA11AF0EE619A24
:101BA000B0EE609A60EEA00AB0EE40EA20EE000AC5
:101BB00070EE810A30EE800A0BF06EFA8CEE002A8D
:101BC000F0EE490AF0EE691AB0EE4E0A20EE821AE3
:101BD00061EE821A20EE022AF0EE680A21EE2F0A48
:101BE00000E019E061EE882A22EE203A30EE220A67
:101BF00030EE030AB5EEC00AF1EE10FA58DD21EE20
:101C0000A00A62EE2F2A21EE083A02EE480A41EEBF
:101C1000602A01EEEF3A89E094ED092AB0EE480A15
:101C2000D4ED0B1AD4ED0A2A94ED0C3A12EE020A06
:101C300062EEA1FA61EE830A42EE03FA42EE620A14
:101C400001EEA10A9AE7B2E000E018E0D4ED091A2B
:101C5000D4ED0A0A94ED0C0A01EEE18A94ED0B2A08
:101C600060EE802A21EE800A41EE822A00EEE08AB0
:101C700000EEC20AF1EE620AF0EE48FA7EE7D4ED19
:101C80000A0AD4ED0B1A94ED092AB0EE480A20EEA8
:101C9000A13AD4ED0C2A02EE420A62EE200A02EECC
:101CA000223A41EEE20A01EEE10AF1EE43FA65E77B
:101CB00021EEA09A62EE2F9A21EE08EA02EE489AEF
:101CC00041EE609A01EEEFEAB5EEC09AF1EE10FA3D
:101CD00018D1B0EE690A01E035FA0E3CB5EEC00A43
:101CE000F1EE10FA0ED1B0EE4E0AB5EEC00AF1EEEA
:101CF00010FA07D1404600EE100A02EE908A03EE79
:101D0000108A13E069EE090A29EEA90A2EEE0E1ACE
:101D100030EE800A30EE010A0BF0BEF9CCEE000A7C
:101D200029EE200A69EEA02A2EEE203A84ED190A47
:101D3000C4ED1A2A84ED1B3A94F8400080B960EE95
:101D4000001A62EEA20A23EE030A71EEA00A30EE38
:101D5000800AD4ED070AB4EEE00AF1EE10FA06D8D4
:101D6000216F84F8788009392167084602E0206FE6
:101D7000401C2067616F884204DDC4F8748084F8D9
:101D8000788001E0216A61670028216A4FF0000233
:101D900001DA104602E0884200DD084694F8781027
:101DA000206721B912EE906A13EE107A656E04F185
:101DB000240000EE906A00EE105A01EE107A7AEEDE
:101DC000A00A3BEE000A3AEE011A94ED004A60EEDA
:101DD000AB0A20EE2B0A61EE2B1A94ED0B2A7DEE56
:101DE000203A3CEE801AD4ED0A0A7DEEA12A94ED49
:101DF000090A21EE043A23EE841A62EE842AD4ED15
:101E00000C1A60EEC33A20EE034A60EE014A42EE3D
:101E1000413A02EE224A40EEE24A41EEE23A60EEF8
:101E2000222A01EEC14A41EE834A40EE812A30EE79
:101E3000230A70EE840A32EE241AF0EE409A42EE43
:101E4000432AB0EE608AF0EE418A71EEA21A80EC6D
:101E5000040A29EEA91A28EE080A68EEA80AB0EECC
:101E6000619A31EE000A69EE091A30EE200A30EE6E
:101E7000210A0BF011F9CCEE000A29EEA00A28EE97
:101E8000201A68EEA01A69EE200A84ED090A84ED92
:101E90000A1AC4ED0B1AC4ED0C0ABDEC108BBDE898
:101EA000F0870000002110B504EE101A03EE901A1E
:101EB00003EE101A0446FFF7B3FC94F84000002824
:101EC00006D02046BDE810409FED020AFFF7AEBBEA
:101ED00010BD000000000000183090EC030A7047AD
:101EE00010B50549044600F00DF800216161A161BB
:101EF000E161216210BD0000D0230108183080ECA0
:101F0000030A70470EC9F7EE000A00EE101ADFED63
:101F1000091A80E80E0080EE801A61EE210AC0EDF9
:101F2000030A00EE903A20EE800ABCEEC00A80ED73
:101F3000040A7047FDAD003ED0ED062A90ED072A59
:101F4000D0ED081A30EE620A90ED013A70EEC20A46
:101F500031EE611AF0EEC03AF4EEC33AF1EE10FA47
:101F600011DCF0EE603AF0EEE33AF4EEC33AF1EE53
:101F700010FA08DCF0EE413AF0EEE33AF4EEC33A40
:101F8000F1EE10FA01DD002104E0D0E904219142D4
:101F900002D2491C41617047D0ED033AB0EE403A9D
:101FA000B0EE605AF0EE414A23EE234A25EE233A82
:101FB00064EEA33A72EE842A32EE032A71EEA31A7B
:101FC000C0ED062A80ED072AC0ED081A7047000010
:101FD000F8B50027044615460E46009790F85C00B9
:101FE00001280BD0012084F85C002046FEF7F8FEA3
:101FF0000100206E04D040F010002DE00220F8BD5A
:1020000020F4885040F002002066206806F48032F8
:1020100005F08043134D1A4383682B401A4342F066
:1020200000428260104A20680EE0009B5B1C009317
:10203000934209D3206E84F85C7020F0020040F0D7
:10204000100020660120F8BD8368DB0FEDD1206E03
:1020500020F0020040F001002066084684F85C7021
:10206000F8BD0000C0FFFE3F00F8C3252DE9F04792
:102070000F4690F85C109CB0044601294FF000090F
:1020800015D00026DFF8F880012084F85C0018964F
:102090001996216841450ED13A4D0095284605F024
:1020A0009DFF8246206805F099FF60B10EE0022096
:1020B0001CB0BDE8F087206E84F85C6040F0200022
:1020C00020660120F4E7BAF1000F09D0216E4FF02D
:1020D000010941F020002066484684F85C60E7E78B
:1020E00020684146884201D0A84201D1264800E03C
:1020F000264840F61F72D7F800C0254BBCF1000FF0
:1021000023D0D0F808C0D7F804802CF4404C4CEA17
:10211000080CC0F808C0D4F800C08C4501D0AC450C
:1021200007D18968AB6801F0010103F0010319438D
:1021300002E0996801F001010029CDD1BD6839683C
:10214000836829439343194317E0876827F440477E
:10215000876027688F4201D0AF4207D18968AB689A
:1021600001F0010103F00103194302E0996801F055
:1021700001010029B0D1816891438160ACE7000082
:102180000020024000210240002302400063025868
:10219000006002582DE9F84F4FF0000B0446FD4E49
:1021A0000D46CDF800B0DA4690F85C00FA4F0128F1
:1021B00008D04FF0010984F85C90206805F00AFF10
:1021C00018B152E20220BDE8F88F2068B0420DD06D
:1021D0002968C2690B0327D091FAA1F1B1FA81F104
:1021E00001F01F0309FA03F10A43C261D5E90012A5
:1021F0004FF00C0C20681F23C1F384610CEA921C81
:1022000002F01F02604493409140026B9A430A43DC
:102210000263206805F0DEFE8046206805F0D6FEE9
:1022200058EA000003D048E1C1F38461D8E7AA6806
:102230002968206805F0DEFE2068B04204D1C2683B
:102240006969C2F3C1020BE0D44A1268B9EB127F8C
:1022500002D0C168C90605D4C2686969C2F38202A6
:10226000520004E0C268696902F01002520891400D
:102270002A69042A5AD02B6800EB8202B04202F18C
:10228000600207D103F0F8401368084340F00040B3
:10229000106008E0D2F800C003F0F84008430CF0EA
:1022A0000041014311602068B0421CD12A69E969EC
:1022B00000EB8200026E22F080720A43026695F8FB
:1022C000201020682A6901290AD00021B042AAD131
:1022D00000EB8200026E22F000720A430266ECE01C
:1022E0004FF00071F2E795F821102A69012917D003
:1022F0005FF0000100EB8200026E22F000420A4310
:102300000266287E21682A6901280CD000200B690A
:1023100002F01F02904023F4F04202430A61CCE035
:102320004FF00041E6E74FF40060F0E7B04273D1B0
:10233000002105F045FE000320684FF000016DD03C
:1023400005F03EFE90FAA0F0B0FA80F12868020392
:1023500069D090FAA0F0B0FA80F0814204D1002256
:102360002068114605F056FE2068012105F028FE80
:10237000000320684FF0010158D005F021FE90FACB
:10238000A0F0B0FA80F12868020354D090FAA0F0CF
:10239000B0FA80F0814204D120680022012105F0CA
:1023A00039FE2068022105F00BFE000320684FF083
:1023B000020143D005F004FE90FAA0F0B0FA80F1DB
:1023C000286802033FD090FAA0F0B0FA80F0814272
:1023D00004D120680022022105F01CFE20680321A0
:1023E00005F0EEFD000320684FF003012ED005F04C
:1023F000E7FD90FAA0F0B0FA80F1286802032AD035
:1024000090FAA0F0B0FA80F0814256D12068002204
:10241000032105F0FFFD50E020E0FFE705F0D0FDCF
:10242000C0F3846192E7C0F3846096E705F0C8FDCD
:10243000C0F38461A7E7C0F38460ABE705F0C0FD9B
:10244000C0F38461BCE7C0F38460C0E705F0B8FD69
:10245000C0F38461D1E7C0F38460D5E7016E2A78C8
:1024600001F0F841B1EB826F03D1016E21F0004120
:10247000016620682978426E02F0F842B2EB816F63
:1024800003D1416E21F00041416620682978826EB7
:1024900002F0F842B2EB816F03D1816E21F000416E
:1024A000816620682978C26E02F0F842B2EB816F33
:1024B00003D1C16E21F00041C1662068816811F02E
:1024C000010F71D1364AB042EB6829680FD1D0F8BC
:1024D000B0C003F01808C1F3130322FA08F20A404F
:1024E0002CEA030C4CEA020CC0F8B0C00EE0D0F8A5
:1024F000C0C003F01808C1F3130322FA08F20A401F
:102500002CEA030C4CEA020CC0F8C0C02548E9686C
:1025100081427DD1286801031BD090FAA0F1B1FA65
:1025200081F1491C01F01F0109294FEA00313CD813
:10253000002911D090FAA0F1B1FA81F101F1010165
:1025400001F01F0109FA01F209D100BFC0F3846153
:1025500009E0C0F38461E4E7C0F38461EEE790FA38
:10256000A0F1B1FA81F101F1010101F01F0142EA8C
:10257000816102D1C0F3846003E090FAA0F0B0FA68
:1025800080F000F1010000F01F0000EB400041EA84
:10259000005140E000600258002102400010005C41
:1025A000FFFF0F000000FF4765E000290FD000BFCC
:1025B00090FAA0F1B1FA81F101F1010101F01F01DE
:1025C00009FA01F206D100BFC0F3846106E0C0F34E
:1025D0008461F1E790FAA0F1B1FA81F101F1010112
:1025E00001F01F0142EA816102D1C0F3846003E07F
:1025F00090FAA0F0B0FA80F0434A00F1010000F038
:102600001F0000EB400002EB005041EA000100E037
:1026100005E041F00071AA68206805F0EBFCD5F8F0
:1026200000C0BCF1000F26DA384B20683849DFF8CB
:10263000E490984201D0B84201D10A4600E04A46EF
:102640009268984202F0E07201D0B84209D19D68C8
:10265000D7F8088005F0010508F0010845EA0805EB
:1026600002E0B56805F001054DB1216E4FF0010A99
:1026700041F020002066504684F85CB0A3E5264D6A
:10268000AC451CD115021AD4B042F4D1984202D004
:10269000B84200D049468B6842F4000023F0E07253
:1026A00002438A601E491D480968B1FBF0F04000F2
:1026B000801C00E0401E00900028FBD1DBE7194D94
:1026C000AC450CD1D5010AD4B042D4D1984202D045
:1026D000B84200D049468B6842F080700EE0124D3F
:1026E000AC45C8D15502C6D4B042C4D1984202D03C
:1026F000B84200D049468B6842F4800023F0E07273
:1027000002438A60B7E70000000020FE002002407C
:102710000023024000630258000052C7400D03002E
:10272000AC460024000021C3000084CB0068006C8C
:10273000704700002DE9F8434FF0000504002E46D5
:10274000009502D0206E18B108E00120BDE8F883A2
:10275000204600F043F9656684F85C502068816883
:10276000C1F3407119B181688E4A114081602068BF
:102770008168C1F3007181B981688B4A114041F0D1
:10278000805181608A4989480968B1FBF0F0401C9A
:1027900000E0401E00900028FBD120688168C1F352
:1027A000007141B9216E012641F010012166616E70
:1027B00041F00101616605F00DFC216EC90600D4EF
:1027C00020B1206E012640F01000E0E0206E20F4E1
:1027D000807040F00200206620688168754D11F01D
:1027E000010F1ED1744B754A984201D0904207D117
:1027F0009968976801F0010107F00107394302E089
:10280000A96801F0010161B9984201D0904201D15B
:102810006B4800E06B488268616822F47C120A43CE
:1028200082602168A9421FD1637ED4E90207E26B6E
:102830005B033A43082805D00C280FD01C280FD082
:1028400018280FD05FF0000000F00C0794F820006B
:1028500043EA47031A4342EA00400FE00420F3E74B
:102860000820F1E71C20EFE7627E94F82030A7688B
:10287000E06B520342EA03423843104394F82020AD
:10288000012A04D1A28C504B03EB42421043A26AAE
:102890002AB1E36A02F47872024343EA0200CA688A
:1028A000A9420BD1494B1A400243CA602068626BAF
:1028B000016921F040611143016103E0444B1A407A
:1028C0000243CA60206805F085FB0746206805F0D2
:1028D0007DFB07434ED12068A946484506D1217E9D
:1028E00094F83820890341EA420103E0227E216BFB
:1028F00041EA8231C26844F203039A430A43C26048
:1029000094F844000128206803D0016921F00101F6
:1029100022E048450ED1D4E9121CD4E914350269ED
:102920002C4F41EA0C012B433A401943114341F02B
:10293000010111E0D4E91317B4F848C0DFF898801A
:10294000636D026908EB0C4C224D394343EA0C03DA
:102950006D1E2A401943114301612068236C0269EE
:1029600022F070421A4302612068484502D0204696
:10297000FEF752F92069012820680BD0016B21F085
:102980000F010163206E20F0020040F0010020667C
:102990003046DBE6E269016B521E21F00F01114364
:1029A000EFE70000C0FFFF5FC0FFFF7F400D0300A7
:1029B000AC46002400600258002002400021024082
:1029C00000230240006302580000FEFF0740F0FFB2
:1029D00003C0F0FF1FF800FC0100FFFF30B5B5B0E9
:1029E000044614212EA8FDF7B1FFB8216846FDF773
:1029F000ADFF1D492068884233D1022000224FF4E8
:102A00000021009110231446CDE90120CDE90330C7
:102A1000C025059006906846CDE907520992289294
:102A200003F00EF908B1FEF70EFD1048016841F001
:102A300020010160006800F0200033900B4808304E
:102A4000016841F00101016000682EAA032100F035
:102A500001003390202082E8130005482EA901F0E0
:102A6000E5FA35B030BD000000200240D8440258DD
:102A7000000002582DE9F047434D0446006888469F
:102A80004249434BA842DFF80C9101D0484501D19F
:102A90000A4600E01A46926802F01F066269082A98
:102AA00014D0AEB1052E13D0092E11D0A84202D0F9
:102AB000484500D01946886800F4404058B1206E5F
:102AC00040F0200020660120BDE8F087082703E0E1
:102AD000C068C007F2E7042701F0BCFB824618E09B
:102AE000B8F1FF3F15D001F0B5FBA0EB0A0141455D
:102AF00002D8B8F1000F0CD120680068384208D124
:102B0000206E002184F85C1040F004002066032051
:102B1000DAE7206800683842E2D0206E40F40070A6
:102B20002066206805F05EFA80B1607E70B920688A
:102B3000006800070AD5206E20F480702066206EA1
:102B4000C00403D4206E40F0010020662068484590
:102B500001D12A4600E00246824210D07EB1052E05
:102B60000DD0092E0BD0484500D00546E968082F46
:102B700007D0490401D40C2101600020A4E7C168FA
:102B8000F5E70821F8E7000000200240002302409A
:102B900000630258002102402DE9F0413B4D0446FC
:102BA00000683B4FA84201D0B84201D1394900E04A
:102BB0003949896801F01F0605F00CFA18B10221A5
:102BC0000846BDE8F08194F85C0001280CD0012093
:102BD00084F85C002046FEF73BF901004FF000024C
:102BE00004D084F85C20EBE70220EAE7236E40F68D
:102BF000016C206823EA0C03B84243F48073236617
:102C000001D12B4600E00346834200D01EB9236E5B
:102C100023F480132366236EDB0404D5636E23F054
:102C20000603636600E062661C23036084F85C2090
:102C30002068B84201D12A4600E00246824215D0FF
:102C4000A6B1052E12D0092E10D0226EB84242F441
:102C50008012226600D00546E8688001B0D5206E5B
:102C600020F4005040F480502066A9E7C268920129
:102C700005D5226E22F4005242F480522266826808
:102C8000064B1A40121D82609AE7000000200240A5
:102C9000002102400023024000630258C0FFFF7F72
:102CA00010B5044690F85C00012808D0012084F893
:102CB0005C0003212046FEF721F810B10BE0022052
:102CC00010BD2046FEF78CF828B9216E21F48851FA
:102CD00041F001012166002184F85C1010BD000064
:102CE0002DE9F84F044601F0B5FA00903CB194F894
:102CF0003500022806D0802161650020E4E0012033
:102D0000BDE8F88FC74DC74EC64918352068303624
:102D1000DFF81483DFF814938842DFF814A3DFF898
:102D200014B32ED0A8422CD0B0422AD0404528D08F
:102D3000484526D0504524D0584522D0BD4A1832A7
:102D400090421ED0BC4A90421BD0BB4A18329042DF
:102D500017D0B94A3032904213D0B74A4832904225
:102D60000FD0B54A603290420BD0B34A78329042CD
:102D700007D0B14A9032904203D0AF4AA832904275
:102D800009D1026822F01E0202602068426922F026
:102D90008002426103E0026822F00E0202602768AE
:102DA0008F4238464DD0A8424BD0B04249D0404522
:102DB00047D0484545D0504543D0584541D09D4A1D
:102DC000183290423DD09C4A90423AD09A4A1832EA
:102DD000904236D0984A3032904232D0964A4832A9
:102DE00090422ED0944A603290422AD0924A783251
:102DF000904226D0904A9032904222D08E4AA832F9
:102E000090421ED08D4A90421BD08C4A1432904280
:102E100017D08A4A2832904213D0884A3C329042D6
:102E20000FD0864A503290420BD0844A643290428E
:102E300007D0824A7832904203D0804A8C3297423F
:102E400004D1206E026822F4807202607549206805
:102E5000884228D0A84226D0B04224D0404522D073
:102E6000484520D050451ED058451CD071491831D6
:102E7000884218D07049884215D06F49183188426D
:102E800011D06D49303188420DD06B4948318842AC
:102E900009D069496031884205D067497831884254
:102EA00001D065499031016821F0010101600EE017
:102EB00001F0D0F90099401A052808D9202262654E
:102EC0000321002084F8351084F8340017E73868AF
:102ED000C007EDD1534A0121206890422ED0A8426C
:102EE0002CD0B0422AD0404528D0484526D0504565
:102EF00024D0584522D04F4B183398421ED04E4B09
:102F000098421BD04C4B1833984217D04A4B303361
:102F1000984213D0484B483398420FD0464B603309
:102F200098420BD0444B7833984207D0424B9033B1
:102F3000984203D0404BA833984208D194F85C7073
:102F40003F23A06D07F01F07BB40836007E094F8A4
:102F50005C30A06D03F01F0301FA03F343602068A7
:102F600090424DD0A8424BD0B04249D0404547D0C6
:102F7000484545D0504543D0584541D02D4A183298
:102F800090423DD02C4A90423AD02B4A183290427F
:102F900036D0294A3032904232D0274A48329042C5
:102FA0002ED0254A603290422AD0234A783290426D
:102FB00026D0214A9032904222D01F4AA832904215
:102FC0001ED01E4A90421BD01C4A1432904217D089
:102FD0001A4A2832904213D0184A3C3290420FD0FD
:102FE000164A503290420BD0144A6432904207D0B5
:102FF000124A7832904203D0104A8C3290420BD160
:10300000D4E919024260E06E30B1026822F48072A5
:103010000260D4E91C024260002084F8351084F874
:1030200034006DE61000024058000240700002407B
:1030300088000240A00002401004024008540258D8
:103040002DE9F05F28B190F83510022904D08021D5
:1030500041650120BDE8F09F904C904B0168183C01
:1030600018338E4ADFF83C92A1428D4CDFF838E2EB
:103070008E4FDFF83CB2DFF83CA28F4D8F4E31D03F
:1030800091422FD099422DD0A1422BD0494529D031
:10309000714527D0B94225D0DFF810C20CF1180CC9
:1030A00061451FD0DFF808C2ACF1600C614519D052
:1030B000DFF8FCC1ACF1480C614513D0DFF8F0C17A
:1030C000ACF1300C61450DD0DFF8E4C1ACF1180C67
:1030D000614507D0594505D0514503D0A94201D0DB
:1030E000B1422CD1DFF8B4C14FF0040880F835802C
:1030F000ACF1180C61451DD091421BD0994219D0FA
:10310000A14217D0494515D0714513D0B94211D00D
:103110006648183081420DD065486038814209D038
:1031200063484838814205D061483038814201D037
:103130005F481838086820F001000860ABE0D1F85B
:1031400000C02CF00E08DFF854C1C1F80080ACF1CB
:10315000180C0168614527D0914225D0994223D0AF
:10316000A14221D049451FD071451DD0B9421BD085
:10317000DFF838C10CF1180C614515D0DFF830C10B
:10318000ACF1600C61450FD0DFF824C1ACF1480C04
:10319000614509D0DFF818C1ACF1300C614503D0AE
:1031A000DFF80CC1ACF1180CD1F800C02CF0010C08
:1031B000C1F800C0DFF8E4804FF0010C0168A8F10D
:1031C0001808414546D0914244D0994242D0A1428C
:1031D00040D049453ED071453CD0B9423AD0334AFF
:1031E0001832914236D0324A603A914232D0304A57
:1031F000483A91422ED02E4A303A91422AD02C4A57
:10320000183A914226D0594524D0514522D0A9429E
:1032100020D0B1421ED02A4A91421BD0284A1432F3
:10322000914217D0264A2832914213D0244A3C3288
:1032300091420FD0224A503291420BD0204A643240
:10324000914207D01E4A7832914203D01C4A8C32F8
:10325000914218D1016E0A6822F480720A6090F8D7
:103260005C20816D02F01F020CFA02F24A60D0E984
:1032700019124A60C16E31B10A6822F480720A6084
:10328000D0E91C124A600022016D80F835C080F838
:10329000342001B188470020DCE60000280002400D
:1032A000580002407000024088000240A000024026
:1032B0007004024088040240A0040240B8040240A6
:1032C00008540258406D70472DE9FC5F0446F74EE4
:1032D0000020DFF8D88300904FF41652F44808F12C
:1032E0001808A56DDFF8C493DFF8C0A3016809F1E1
:1032F000300920680AF1480AB1FBF2F1B0420191AD
:103300002F68D5F800C0DFF8ACB335D0414688420D
:1033100032D0484530D050452ED058452CD0E549C4
:103320001831884228D0E3493031884224D0E1491D
:103330004831884220D0E04988421DD0DE4918310A
:10334000884219D0DC493031884215D0DA494831F9
:10335000884211D0DFF860E30EF1600E70450BD0AB
:10336000D54A7832904207D0D34B9033984203D05D
:10337000D149A83188427DD194F85C20082102F01F
:103380001F0201FA02F23A424AD0B04232D040451E
:1033900030D048452ED050452CD058452AD0C54A6B
:1033A0001832904226D0C34A3032904222D0C14ACD
:1033B000483290421ED0C04A90421BD0BE4A1832BA
:1033C000904217D0BC4A3032904213D0BA4A4832A9
:1033D00090420FD0B84A603290420BD0B64A783251
:1033E000904207D0B44A9032904203D0B24AA832F9
:1033F000904203D1026802F0040202E0026802F087
:1034000008026AB1026822F00402026094F85C00CB
:1034100000F01F008140A960606D40F00100606510
:1034200094F85C00012100F01F008140394240D037
:103430002068B04234D0404532D0484530D0504565
:103440002ED058452CD09B4A1832904228D0994A09
:103450003032904224D0974A4832904220D0964A47
:1034600090421DD0944A1832904219D0924A30327C
:10347000904200E0AFE113D08F4A483290420FD023
:103480008D4A603290420BD08B4A7832904207D0FE
:10349000894A9032904203D0874AA83290427DD127
:1034A000406910F0800F04D0A960606D40F0020008
:1034B000606594F85C00042100F01F0081403942EF
:1034C0003ED02068B04232D0404530D048452ED062
:1034D00050452CD058452AD0764A1832904226D0F2
:1034E000744A3032904222D0724A483290421ED002
:1034F000714A90421BD0704A1832904217D06E4ADF
:103500003032904213D06C4A483290420FD06A4A0F
:10351000603290420BD0684A7832904207D0664AB7
:103520009032904203D0644AA83290424ED1006853
:1035300010F0020F04D0A960606D40F004006065D7
:1035400094F85C00102100F01F008140394258D0EF
:103550002068B04234D0404532D0484530D0504544
:103560002ED058452CD0534A1832904228D0514A78
:103570003032904224D04F4A4832904220D04E4AB6
:1035800090421DD04C4A1832904219D04A4A3032EB
:10359000904215D0484A4832904200E014E00FD0E3
:1035A000454A603290420BD0434A7832904207D06D
:1035B000414A9032904203D03F4AA832904207D10C
:1035C000006800F0080006E0006872E70068B7E7EE
:1035D000006800F00400A0B1A960206801684903F8
:1035E00004D50068000308D5A16C07E00168C9058F
:1035F00003D4016821F008010160216C09B1204663
:10360000884794F85C00202100F01F008140394277
:1036100079D02068B04232D0404530D048452ED0D5
:1036200050452CD058452AD0224A1832904226D0F4
:10363000204A3032904222D01E4A483290421ED058
:103640001D4A90421BD01C4A1832904217D01A4A89
:103650003032904213D0184A483290420FD0164A66
:10366000603290420BD0144A7832904207D0124A0E
:103670009032904203D0104AA832904203D10068A1
:1036800000F0100002E0006800F00200B0B3A96092
:1036900094F835000428206801680FD049037ED5CE
:1036A000006800032BD4616C2AE000001000024087
:1036B000AC460024700002401004024021F01601C4
:1036C00001602068416921F080014161206C08B9E6
:1036D000A06C20B12068016821F00801016094F815
:1036E0005C303F21012003F01F0300229940A960B4
:1036F00084F8350084F83420216D65E003E0E16B47
:1037000009B120468847606D00287DD0606DC007F4
:1037100059D02068042184F83510B0422BD04045A0
:1037200029D0484527D0504525D0584523D09D491C
:10373000884220D09B49183188421CD099493031A9
:10374000884218D09849884215D097491831884244
:1037500011D09549303188420DD093494831884283
:1037600009D091496031884205D08F49783188422B
:1037700001D08D499031016821F00101016020687C
:103780000099019A491C0091914202D80168C90729
:10379000F6D10068C00710D003200FE0FFE70168F2
:1037A000C905ACD403680121002223F01003036093
:1037B00084F8351084F83420A1E7012084F835001E
:1037C000002084F83400E16C00291DD002B02046AE
:1037D000BDE8F05F0847754988421DD07349143130
:1037E000884219D071492831884215D06F493C313F
:1037F000884211D06D49503188420DD06B496431F7
:10380000884209D0694900E084E07831884203D0D9
:1038100066498C3188427DD194F85C800427016828
:1038200008F01F0807FA08F717EA0C0F009746D0B0
:103830004F0744D500980F04686003D5C8033CD4F3
:10384000A16CC1E7880638D42068B0422DD0554914
:103850006039884229D0484527D0504525D0584561
:1038600023D05049884220D04E49183188421CD07C
:103870004C493031884218D04B49884215D04A49CA
:103880001831884211D04849303188420DD046491C
:103890004831884209D0704507D0904205D09842FF
:1038A00003D04149A831884203D1016821F00801C1
:1038B00002E0016821F004010160216C84E7022725
:1038C00007FA08F717EA0C0F00974ED08F074CD570
:1038D00000980F04686003D5C80344D4616C73E793
:1038E000880640D42068B0422FD02E4960398842E3
:1038F0002BD0484529D0504527D0584525D02949B7
:10390000884222D02749183188421ED025493031BB
:10391000884200E044E018D02349884215D022496B
:103920001831884211D02049303188420DD01E49CB
:103930004831884209D0704507D0904205D098425E
:1039400003D01949A831884203D1016821F014013C
:1039500002E0016821F00A010160012184F83510BC
:10396000002084F83400E16B2EE7082202FA08F206
:1039700012EA0C0F14D0090712D5016821F00E01CC
:10398000016094F85C100120002201F01F0100FA90
:1039900001F16960606584F8350084F8342012E72D
:1039A000BDE8FC9F88000240100402400854025801
:1039B0002DE9F05F044600F04DFC002C07467DD059
:1039C000E24E022120684FF00308DFF884934FF0A5
:1039D0000005DFF880A3B042DFF87CB334D0DB4AC7
:1039E0001832904230D048452ED050452CD0584502
:1039F0002AD0D94A1832904226D0D74A3032904243
:103A000022D0D54A483290421ED0D44A90421BD090
:103A1000D24A1832904217D0D04A3032904213D056
:103A2000CE4A483290420FD0CC4A603290420BD0FE
:103A3000CA4A7832904207D0C84A9032904203D0A6
:103A4000C64AA83290427DD184F83510B04284F83D
:103A500034502ED0BD49183188422AD0484528D04C
:103A6000504526D0584524D0BB491831884220D033
:103A7000B949303188421CD0B7494831884218D002
:103A8000B649884215D0B5491831884211D0B3499A
:103A9000303188420DD0B1494831884209D0AF4910
:103AA0006031884205D0AD497831884201D0AB49B8
:103AB0009031016821F00101016008E025E100BFBB
:103AC00000F0C8FBC01B052801D920211AE120689D
:103AD0000068C007F4D1D4E9020321681034184308
:103AE0008E4694E88410D4E9033809683A431043B9
:103AF0009B4A40EA0C00676918431140103C40EAB9
:103B00000800042F40EA010003D1D4E90B1211434D
:103B100008436168A1F12902052A0BD9163A032A44
:103B200008D9083A012A05D9083A032A02D9743972
:103B3000032901D840F48010CEF800002068676A9D
:103B4000406900E020E0042F20F0070047EA00076A
:103B50000DD1D4E90A01074349B12046FDF738FBEE
:103B600028B140206065012184F83510CDE020683F
:103B700047612046FDF74AFA94F85C203F2102F0A5
:103B80001F029140816055E0764A90421BD0754BF0
:103B90001433984217D0734B2833984213D0714B8B
:103BA0003C3398420FD06F4B503398420BD06D4B43
:103BB0006433984207D06B4B7833984203D0694BFB
:103BC0008C3398427ED184F8351084F83450664B9B
:103BD0000168A26801EA030E402A74D0802A73D0DB
:103BE0005FF00002D4E90378D4E9053142EAD70254
:103BF00042EAD8085B4AD4E9077C48EAD30848EA95
:103C0000D10141EAD701524241EA1C11142341EA91
:103C10000E01016020681044B0FBF3F08000E06505
:103C20002046FDF7F3F994F85C20012102F01F0211
:103C3000914041602068B04257D0444918318842D1
:103C400053D0484551D050454FD058454DD04249AA
:103C50001831884249D040493031884245D03E49E8
:103C60004831884241D03D4988423ED03B491831D5
:103C700088423AD039493031884236D037494831C4
:103C8000884232D03549603188422ED0334978316C
:103C900088422AD031499031884226D02F49A83114
:103CA000884222D02F4988421FD02E4914318842A1
:103CB0001BD02C492831884217D02A493C318842F0
:103CC00013D002E01DE017E018E026495031884289
:103CD0000BD024496431884207D022497831884288
:103CE00003D020498C31884229D12046FDF7E8F9DC
:103CF000A06880280CD00CE0102273E74FF48042BB
:103D000070E74021616584F835800120BDE8F09FAF
:103D10006560216E20790860D4E91901416060680E
:103D2000401E072808D82046FDF718FAE06E056007
:103D3000D4E91C01416002E0E56625676567012062
:103D4000656584F835000020E0E7000010000240BF
:103D5000400002405800024070000240100402403F
:103D60003F8010FE085402580F00FEFF2DE9F84F67
:103D700004008C464FF00000009014D094F83400FA
:103D8000012812D094F835500120002184F8340025
:103D9000012D0CD0C00260650120009084F8341021
:103DA0000098BDE8F88F0120FBE70220F9E78C4D71
:103DB0000226206884F83560A8428A4D61658A4EE3
:103DC0008A4FDFF82C82DFF82C92DFF82CA2DFF884
:103DD0002CB226D0A84224D0B04222D0B84220D063
:103DE00040451ED048451CD050451AD0584518D0E3
:103DF0008349884215D082491831884211D08049C0
:103E0000303188420DD07E494831884209D07C4902
:103E10006031884205D07A497831884201D07849AA
:103E20009031016821F00101016061462046FDF7F3
:103E3000F9F96B49206888422CD0A8422AD0B042B8
:103E400028D0B84226D0404524D0484522D05045FD
:103E500020D058451ED06A4A90421BD0684A18327A
:103E6000904217D0664A3032904213D0644A4832AA
:103E700090420FD0624A603290420BD0604A783252
:103E8000904207D05E4A9032904203D05C4AA832FA
:103E900090420CD1026822F01E0242F0160202602B
:103EA000206C88B12068026842F008020BE00268CA
:103EB00022F00E0242F00A020260206C20B120685B
:103EC000026842F004020260206888424BD0A84297
:103ED00049D0B04247D0B84245D0404543D048458C
:103EE00041D050453FD058453DD0454A90423AD008
:103EF000434A1832904236D0414A3032904232D052
:103F00003F4A483290422ED03D4A603290422AD0F9
:103F10003B4A7832904226D0394A9032904222D0A1
:103F2000374AA83290421ED0364A90421BD0354ABA
:103F30001432904217D0334A2832904213D0314A7B
:103F40003C3290420FD02F4A503290420BD02D4A33
:103F50006432904207D02B4A7832904203D0294AEB
:103F60008C3290420DD1206E0268D20303D50268D4
:103F700042F480720260E06E18B1026842F480720E
:103F800002602068884226D0A84224D0B04222D0C5
:103F9000B84220D040451ED048451CD050451AD0CC
:103FA000584518D01649884215D01549183188420D
:103FB00011D01349303188420DD01149483188421F
:103FC00009D00F496031884205D00D4978318842C7
:103FD00001D00B499031016841F001010160DFE639
:103FE00010000240280002404000024058000240F9
:103FF0007000024088000240A0000240B800024069
:10400000100402400854025870B5044600F022F92A
:104010000546601C02D004480078044400F01AF9F8
:10402000401BA042FAD370BDA04600242DE9F84FF2
:1040300003247A4D00234FF001094FF0B04B4FF0AD
:104040000F0AE4E009FA03F6324078D00F7907F05E
:104050000307012F01D0022F1AD187684FEA430EC0
:10406000D1F80CC004FA0EF827EA08070CFA0EFC87
:104070004CEA070CC0F808C0476891F804C0B74381
:10408000CCF3001C0CFA03FC4CEA070CC0F804C08B
:104090000E79F643B6070BD0C6684FEA43088F681F
:1040A00004FA08FC26EA0C0607FA08F73743C7604B
:1040B0000E7906F00306022E12D1DE080F694FEAD0
:1040C000437C00EB8606B646366A4FEADC6C0AFA99
:1040D0000CF807FA0CF726EA08063743CEF82070EA
:1040E0000F7906684FEA430807F0030704FA08FC53
:1040F00007FA08F726EA0C06374307604E6816F4FD
:10410000403F1CD0464E376847F00207376036689C
:104110009F0706F00206009623F0030606F1B0465C
:10412000B6463F0FD6F80864DFF8F8800AFA07FCB5
:10413000404526EA0C0603D14FF0000C3AE065E05A
:10414000DFF8E4C0604502D14FF0010C32E0DFF847
:10415000DCC0604502D14FF0020C2BE0DFF8D0C08C
:10416000604502D14FF0030C24E0DFF8C8C0604581
:1041700002D14FF0040C1DE0DFF8BCC0604502D155
:104180004FF0050C16E0DFF8B4C0604502D14FF0E7
:10419000060C0FE0DFF8A8C0604502D14FF0070C15
:1041A00008E0DFF8A0C0604502D14FF0090C01E043
:1041B0004FF00A0C0CFA07FC4CEA060CCEF808C4C7
:1041C0004F68DBF80060FF0226EA020600D51643BE
:1041D0005F46CBF80060D1F804C0DBF804605FEA0A
:1041E0008C2C26EA020600D516437E606E684F6866
:1041F00026EA0206BF0300D516436E602E684F689C
:1042000026EA0206FF0300D516432E605B1C0A68EF
:1042100032FA03F67FF416AFBDE8F88F800000583D
:10422000F4440258000002580004025800080258E2
:10423000000C0258001002580014025800180258CE
:10424000001C0258002402580AB181617047090419
:10425000FBE700000148806870470000A04600248A
:10426000024881680278114481607047A0460024AA
:10427000032010B500F0CAF802F022FB0F4A1049E3
:1042800014681368C4F3032203F00F038A5CC95C4B
:1042900002F01F0201F01F01D0400A4A20FA01F18A
:1042A0001160094908600F2000F010F808B10120E2
:1042B00010BD00F04DF8002010BD00001844025859
:1042C00074240108B0460024AC46002410B5102820
:1042D00004468AB02AD200220146A12000F076F8D6
:1042E000A12000F065F8154804601548016841F008
:1042F00080710160006808A900F08070099068462C
:1043000002F06AFA02F0CAFA0E49400000220E4C8E
:10431000B0FBF1F10D4840F2E7330460C0E903322D
:10432000491EC0E9011203F086FC10B101200AB059
:1043300010BD064803F0B2FCF9E70000A4460024D3
:10434000EC44025840420F0000E00040CC5C0024E6
:10435000074882B0016841F0020101600068002254
:104360000F2100F002000090901E02B000F02EB865
:10437000F4440258002809DB410900F01F028900BB
:10438000012001F1E0219040C1F88002704700282F
:104390000DDB410900F01F028900012001F1E0213D
:1043A0009040C1F88001BFF34F8FBFF36F8F70470C
:1043B000002809DB410900F01F028900012001F1FA
:1043C000E0219040C1F80001704700000E4BF0B4AE
:1043D0001B680D46C3F30223C3F10706042E00D960
:1043E0000426191D072901D2002300E0DB1E012449
:1043F00004FA06F19C40491E2940641E994014406D
:104400002143F0BC07F05ABF0CED00E0064900F074
:10441000070210B54FF6FF040868044B204040EA3D
:1044200002201843086010BD0CED00E00000FA0502
:104430002DE9F04F02688346FE484FF0000A8DB028
:104440000C468242564602D10025012001E001259A
:104450000020E8460027814607EB47017F1C08EB58
:10446000C101F8B204F0EAF820B108204FF0010AC7
:10447000CBF85400FFB2022FEED3BAF1000F7CD17B
:10448000DFF8B0E3DEF80000C00707D0DEF8001068
:1044900046F0010621F00101CEF80010E648006860
:1044A000C00706D0E44846F00206016821F0010189
:1044B000016005EB45030C93E048424608EBC3035B
:1044C000DFF87CB30121DC469F6800EB8707D7F853
:1044D000008428F48078C7F80084DBF80070FF07B8
:1044E00032D0DCF80070B9F1010F27F00107CCF8E9
:1044F00000705CD1069B00EB8303D3F8007447F097
:104500000207C3F80074079B3BB100EB8303D3F8A9
:10451000007447F02007C3F80074099B4BB121EAEF
:10452000030300EB8303D3F8047447F48027C3F834
:1045300004740A9BDBB321EA030700EB8703D3F87B
:10454000047447F0806730E00C9F52F8377077B3FF
:1045500000EB8707D7F800C42CF0010CC7F800C4A3
:104560005F683FB100EB8707D7F800C42CF0100C50
:10457000C7F800C4D3F80CC000E057E1BCF1000F4D
:1045800009D021EA0C0700EB8707D7F804C42CF404
:10459000803CC7F804C41B694BB121EA030700EB58
:1045A0008703D3F8047427F08077C3F8047409EB09
:1045B0004903D4F800C0CDF830C0914652F83370AA
:1045C000BC4518D009EBC302D4F804C0D2F804806B
:1045D000C44510D0D4F808C0D2F80880C4450AD029
:1045E000D4F80CC0D2F80C80C44504D0D4F810C064
:1045F0001269944551D10C9ABA4219D109EBC30200
:10460000D4F804C0D2F80480C44511D1D4F80CC049
:10461000D2F80C80C4450BD1D4F810C0126994456F
:1046200006D1DBF8003043F00103CBF8003034E072
:1046300000EB870709EBC302D7F8003423F001032E
:10464000C7F8003453683BB100EB8303D3F8007420
:1046500027F01007C3F80074936800EB8303D3F8C6
:10466000007427F48077C3F80074D3684BB121EA53
:10467000030700EB8703D3F8047427F48037C3F8EB
:10468000047412694AB121EA020300EB8302D2F8F2
:10469000043423F08073C2F80434A3685A4600EB54
:1046A0008303D3F8007427F4407747EA452747F49B
:1046B0008077C3F80074DBF800C063695F1ECCF339
:1046C000074C674508D95F4FD2F800C007EB034796
:1046D0002CF47F033B4313601268D207226800EB7F
:1046E0008202D2F800343FD023F003035B1CC2F8EF
:1046F000003462684AB100EB8202D2F8003423F041
:10470000300343F01003C2F80034E268D3030AD543
:1047100021EA020300EB8302D2F8043423F4E023FD
:1047200043F480330AE05AB121EA020300EB83022A
:10473000D2F8043423F0E06343F08073C2F8043409
:104740002269D30307D5914300EB8100D0F804140C
:1047500021F4E0214AE0EAB3914300EB8100D0F874
:10476000041421F0E0614EE001EB450723F0030360
:104770003B43C2F8003462685AB100EB8202D2F8BF
:10478000003423F0300343EA451343F01003C2F82A
:104790000034E268D3030CD521EA020300EB830264
:1047A000D2F8043423F4E02343EA854343F480330E
:1047B0000CE06AB121EA020300EB8302D2F8043470
:1047C00023F0E06343EA856343F08073C2F8043466
:1047D000226900E01BE0D3030BD5914300EB81007D
:1047E000D0F8041421F4E02141EA854141F440313C
:1047F0000BE062B1914300EB8100D0F8041421F08A
:10480000E06141EA856141F04071C0F80414F007AD
:1048100005D0DEF8001041F00101CEF80010B0071D
:1048200004D50548016841F0010101600DB0504612
:10483000BDE8F08F0050005200A0005200B00052BE
:1048400000B400520000FFFFF8B500250446FFF752
:1048500001FD064624B100206065206D10B170E0B6
:1048600001256EE0204600F073F841F28830A06523
:10487000258A6FF0FF012268D4F814C00F02636B21
:1048800007EB0545E06801EB0C27D4F81CC0184382
:1048900093683D432D4F28433B4040EA0C001843AA
:1048A00090602068236AC26822F4E0221A43C26042
:1048B0002368228EA06B40EA024018612268E06BF8
:1048C0005061D4E90003026801EB032322F4F8519C
:1048D00019430160A06D002220213346009020463C
:1048E00003F01AFF05002CD12068626AC168521ECD
:1048F00021F0FF011143C1602068A268016821F026
:104900004001114301602068D4E90A12D0F808314F
:10491000114323F0A0421143C0F808112068016838
:1049200041F001010160A069022804D1206881687A
:1049300041F002018160E068B0F1806F03D0022095
:1049400020652846F8BD0120FAE70000F4F8E0F8F9
:104950002DE9F043B5B0044614216846FBF7F6FF95
:10496000B82106A8FBF7F2FF4749206888427DD1AD
:10497000002019904FF000710446CDE9061006A8FA
:1049800001F05EF908B1FCF75EFD4048016841F4B2
:1049900000110160016801F400110591016841F402
:1049A00000210160006800F40020059037480C30B9
:1049B000016841F001010160016801F00101059108
:1049C000016841F002010160016801F002010591F6
:1049D000016841F010010160016801F010010591CA
:1049E000016841F00801016000680225092700956F
:1049F00000F00800DFF89880032603966946CDE9A9
:104A00000470CDE901544046FFF710FB06210294E3
:104A10000820CDE90361CDE9000569464046FFF76E
:104A200005FB0121DFF86C9002AA4FF00408CDE9E4
:104A300000156946484682E85001FFF7F7FA02AAD6
:104A40006946484682E8D000CDE90085FFF7EEFAD6
:104A50000B2111484FF40068CDF80080CDE90361C7
:104A6000CDE901546946FFF7E1FA00E008E002AA47
:104A70000A48694682E8D000CDE90085FFF7D6FAFA
:104A800035B0BDE8F083000000A00052D4440258C5
:104A9000000002580004025800100258000C02588E
:104AA00001680123C0F80035002280F8F4248869E9
:104AB000044A40F000608861486D1043486500205A
:104AC000704700000300001070470068416200203A
:104AD0007047F0B503685D6A39B19F6A4C1E0020CB
:104AE0004FF4827605EB17450BE045EA02409862E9
:104AF00010E0471C06EB800053F800C0F8B205EB4D
:104B00001C45A042F5D34FF4807000EB810045EACC
:104B100002421A500020F0BDD0F8080506F003BB91
:104B200001EBC10200EB8202D0F80805926C06F09E
:104B300056BA01EBC10200EB8202D0F80805D2F8A8
:104B4000882206F0A8BAD0F8080506F0EEBA0A06E0
:104B500001F00F0101EBC10100EB810101D53C31F6
:104B600001E001F51F71006807F0DAB901F00F02EA
:104B70000B0670B502EBC20104464FF001004FF086
:104B8000000504EB810103D581F83D003C3103E0D1
:104B900081F87D5201F51F710A7094F8BC24012A36
:104BA00008D084F8BC04206806F0D6FE002084F803
:104BB000BC5470BD022070BD70B54268044601F05F
:104BC0000F00904201D9012070BD01F00F024FF09B
:104BD00000050B0602EBC2014FF0010204EB81015C
:104BE00003D581F83D203C3103E081F87D5201F589
:104BF0001F718D70087094F8BC04012808D084F8E7
:104C0000BC24206807F018F8002084F8BC5470BD5C
:104C1000022070BD01F00F0101EBC10100EB81002A
:104C2000D0F8900270472DE9F04101F00F060446DC
:104C30000D064FF0010006EBC6014FF0000504EB36
:104C4000810103D581F83D003C3103E081F87D52BC
:104C500001F51F714F788A600B710E7007B14E839A
:104C6000022B00D14D7194F8BC24012A09D084F89C
:104C7000BC04206806F0BEFD284684F8BC54BDE89C
:104C8000F0810220FBE770B501F00F05002405EB71
:104C9000C50100EB810101F5227181E81C0001F8DA
:104CA0000B4C01F80C5DC368012B00D1CA61027B7B
:104CB000006807F019F8002070BD70B50D46416816
:104CC000044605F00F00884201D9012070BD290675
:104CD0004FF000064FF0010207D500EBC00104EBD6
:104CE000810181F83D203C3107E005EBC50104EB73
:104CF000810181F87D6201F51F718A70087094F856
:104D0000BC04012807D084F8BC24206806F0C0FF4A
:104D1000280702D007E0022070BD217B04F2C442C4
:104D2000206806F05DFF002084F8BC6470BD70B59B
:104D300001F00F04002504EBC401012600EB810102
:104D4000483181E82C0001F80B6C01F80C4DC36868
:104D5000012B00D1CA61027B006806F0C5FF00206C
:104D600070BD00002DE9FC5F05680446284607F089
:104D700078F900287ED1206807F09FF9002879D0C3
:104D8000D5F80808C0F30D20C4F8FC04206807F02B
:104D900094F9800704D52068416901F0020141615E
:104DA000206807F08AF9C10604F2C440009034D5A7
:104DB0002068816921F0100181612F6A07F00F01DD
:104DC000C7F3434001EBC101022804EB810606F55D
:104DD0001F7602D0062811D01AE047F6F07007427D
:104DE00016D0C7F30A12F1681746284607F069F98A
:104DF000F16870693944F160384408E0009908228C
:104E0000284607F05EF97069C7F30A11084470611B
:104E10002068816941F010018161206807F04DF937
:104E200000034FF0000A4FF0020B4FF001097CD550
:104E30002068002607F020F9074674E0F80770D0D4
:104E40002068F1B207F031F98046C00707D005EBC2
:104E50004611C1F8089B3146204603F087FC5FEA03
:104E6000087025D505EB46110820C1F8080BFC4950
:104E7000206800E042E2026C00EB461001928A4298
:104E8000D0F8081B05D9090403D54FF40041C0F838
:104E9000081B204600F01AFBF1490198884207D907
:104EA000E068012804D120680121009A06F098FEEC
:104EB0005FEAC86004D505EB46111020C1F8080B65
:104EC0005FEA88701CD56869000605D5D5F8040826
:104ED00040F48061C5F8041806EBC60004EB8000BE
:104EE00090F87F1200F51F70012905D180F803A00A
:104EF0002046F1B200F008FA05EB4611C1F808BBF4
:104F00005FEA886004D505EB46112020C1F8080B44
:104F10005FEA884005D505EB46114FF40050C1F813
:104F2000080B7F08761C002F88D1206807F0C5F891
:104F300040036FD5206807F098F80026074667E021
:104F4000F80763D02068F1B207F09DF88046C007EB
:104F500023D0D5F8342806F00F0C05EB461309FAD8
:104F60000CF08243C5F83428C3F80899E06801289A
:104F70000FD106EBC60004EB8000D0E911121144FA
:104F8000816436B9E06C20B920680121009A06F0EE
:104F900027FE2046F1B2FFF7C3FD5FEA087004D593
:104FA00005EB46110820C1F808095FEAC86004D57E
:104FB00005EB46111020C1F808095FEA486004D5E6
:104FC00005EB46114020C1F808095FEA887016D544
:104FD0003146284607F018F806EBC60004EB8000BF
:104FE00090F83F103C30012905D180F803A02046FD
:104FF000F1B200F085F905EB4611C1F808B95FEA96
:10500000086003D53146204603F016FC7F08761C65
:10501000002F95D1206807F050F8002811DAD5F854
:10502000040820F00101C5F8041894F8F4040128DC
:105030003BD0204600F02EFA2068416901F0004183
:105040004161206807F039F800050BD5D5F808084C
:10505000C00702D0204600F061FA2068416901F4DF
:1050600000614161206807F028F800010AD5206836
:10507000416901F00061416194F8F404E0B1204617
:1050800000F04CFA206807F018F8C00472D5D5F883
:10509000040820F00101C5F804182068102106F06A
:1050A000B3FF00214FF67F322DE00021204684F827
:1050B000F4A4FFF709FDBFE784F8F4942068406D7D
:1050C0000121C0F38300C4F8F8042046FFF7FCFC7C
:1050D000D8E700BF05EB4110C0F80829D0F8003927
:1050E00023F40013C0F80039C0F8082BD0F8003BB7
:1050F00023F40013C0F8003BD0F8003B43F00063FA
:10510000C0F8003B491C60688842E3D8D5F81C0809
:1051100040F00111C5F81C18206B68B1D5F884085F
:1051200040F00B01C5F88418D5F8440840F00B0195
:105130002846C5F844180DE0D5F8140842F22B01B2
:105140000843C5F81408D5F8100840F00B012846AC
:10515000C5F81018D0F8000820F4FE61C5F8001852
:10516000217B2068009A06F03BFD2068416901F42C
:1051700080514161206806F0A0FF800417D52068A7
:1051800006F078FB206806F05FFF206101F052FB1B
:10519000217C2368CAB20146184606F0F3FF204678
:1051A00000F062F92068416901F400514161206812
:1051B00006F083FF000707D5204600F06FF920684E
:1051C000416901F008014161206806F076FF0006A0
:1051D00016D5A869012620F08001A9610DE000BF65
:1051E00006EBC60004EB800090F87F02012803D193
:1051F0002046F1B2FFF7ABFC761C6068B042EFD8F6
:10520000206806F05AFFC00221D501264F4616E05D
:1052100006EBC60105EB461004EB8101D0F800094E
:1052200091F84020012A09D1002807DAF0B281F86C
:105230003F7040F080012046FFF789FC761C6068D3
:10524000B042E5D82068416901F4801141612068CD
:1052500006F033FF800234D501204B4629E00000E0
:105260000A30544F00EBC00205EB401104EB820200
:10527000D1F8001B92F88062012E19D1002917DAAB
:1052800094F8FC6401F4803106F00106B1420FD1BC
:1052900082F87F32A96941F08002AA616969090632
:1052A00006D4D5F8040840F40070C5F8040803E0FB
:1052B000401C61688142D5D82068416901F4001121
:1052C0004161206806F0F9FE400007D52046FFF74F
:1052D00023FC2068416901F080414161206806F0AB
:1052E000ECFE40070AD520684568680702D52046CD
:1052F000FFF729FC2068416829434160BDE8FC9F15
:10530000D0F8080505F06ABFD0F8080505F07ABFA7
:105310002DE9F04104008AB005D094F8BD040025C1
:10532000266820B108E001200AB0BDE8F0812046DF
:1053300084F8BC5400F066F8032084F8BD04F06BD8
:10534000C00500D4E560206806F044FC04F11001BB
:10535000684628228846FBF7BFFA94E80F0006F05B
:1053600097FA0227D8BB2068002106F0CAFE002069
:10537000012610E000EBC001421C04EB810181F822
:105380003D6081F840504D648D64CD6481F83C00EF
:10539000A1F85600D0B261688142EBD8002011E03C
:1053A00000EBC001421C04EB810181F87D5281F8C1
:1053B0008052C1F88452C1F88852C1F88C5281F8E9
:1053C0007C02D0B261688142EAD828224146684610
:1053D000FBF782FA94E80F0006F040FB10B184F866
:1053E000BD74A0E7606A84F8385084F8BD64012871
:1053F00002D12046FFF754FB206806F021FB002075
:1054000092E7000010B5B0B00446B8216846FBF73B
:105410009DFA13492068884220D100204FF4802152
:105420004FF440122192CDE90010684600F008FCCC
:1054300008B1FCF708F800F0B3F80A48016841F039
:105440000071016000680022052100F000702E90BC
:105450004D20FEF7BBFF4D20FEF7AAFF30B010BD78
:1054600000000440D844025870B504460069012584
:1054700070B1022801D0FBF7E6FFD4F808052946F1
:1054800005F02FFFD4F80805BDE8704005F0E3BE35
:105490000025F2E7D0F8080505F00CBFD0F80805A4
:1054A00005F012BF10B5044690F8BC0401280BD0DB
:1054B000012084F8381084F8BC04206806F050FEFF
:1054C000002084F8BC0410BD022010BDD0F80825CF
:1054D00000F2C441104605F010BF10B590F8BC149E
:1054E00004460068012909D0012184F8BC14C16B6D
:1054F000C90509D4A16A012902D005E0022010BD26
:10550000816B41F480318163206806F058FD20688A
:1055100006F088FA002084F8BC0410BD10B50446DB
:10552000D0F8080505F02BFF2068D0F8001E41F0E8
:105530000101C0F8001E206A002804D0024801685A
:1055400041F00601016010BD10ED00E0134970B597
:105550000A68D243520705D5096801F00701814264
:1055600013D118E00A6822F0070202430A60FEF72E
:1055700071FE0A4D4FF47A760446083D07E000BFFD
:10558000FEF768FE001BB04201D9012070BD2868FB
:10559000C0438004F4D4002070BD00000C480258C1
:1055A0000248016841F08071016070470C48025860
:1055B00010B501F03FF905490968054AC1F3021128
:1055C000515C01F01F01C84010BD0000204402588A
:1055D000742401084A4930B5494C0B1D0A680C3443
:1055E00009681D68246802F0030305F00102C1F395
:1055F0000511C4F3CC04002914FB02F200EE102ABA
:10560000F8EE400A76D0414A9FED3E1ADFED3E1A91
:10561000B7EE000A23B1012B5AD0022B18D15CE05F
:10562000374C283C23689B0612D5394B246801EE81
:10563000901A1168C4F3C104F8EE612AE34001EE48
:10564000903AC1F30801F8EE611A81EEA22A07E050
:1056500002EE101A1168F8EE422A81EEA22A45E005
:1056600001EE901A1168F8EE611A40EE811A71EE9F
:10567000800A62EE200AC1F3462101EE101AB8EE4C
:10568000411A31EE001AC0EE811ABCEEE11A80ED2B
:10569000001A1168C1F3064101EE101AB8EE411A62
:1056A00031EE001AC0EE811ABCEEE11A80ED011A4B
:1056B0001168C1F3066101EE101AB8EE411A31EE1D
:1056C000000A80EE801ABCEEC10A80ED020A30BDED
:1056D00001EE901ADFED0F2A03E001EE901ADFEDE4
:1056E0000E2A1168F8EE611A82EEA12AC1F30801B0
:1056F000B6E7FFE7002101604160816030BD000036
:1057000028440258000000390024744C30440258E8
:105710000090D0030024744A001BB74B494930B5B0
:10572000484C0B1D0A68143409681D68246802F08F
:105730000303C5F30012C1F30531C4F3CC040029FF
:1057400014FB02F200EE102AF8EE400A75D03F4A30
:105750009FED3D1AB7EE000A6BB1DFED3D1A012B4C
:1057600001D0022B64D002EE101A1168F8EE422A22
:1057700081EEA22A21E0334C283C23689B0612D5F7
:10578000344B246801EE901A1168C4F3C104F8EE9A
:10579000612AE34001EE903AC1F30801F8EE611A84
:1057A00081EEA22A0BE001EE901ADFED2B2A00BF5A
:1057B000F8EE611A116882EEA12AC1F3080101EE28
:1057C000901A1168F8EE611A40EE811A71EE800AA3
:1057D00062EE200AC1F3462101EE101AB8EE411A1A
:1057E00031EE001AC0EE811ABCEEE11A80ED001A0B
:1057F0001168C1F3064101EE101AB8EE411A31EEFC
:10580000001AC0EE811ABCEEE11A80ED011A11688F
:10581000C1F3066101EE101AB8EE411A31EE000A2A
:1058200080EE801ABCEEC10A80ED020A30BD04E0B1
:1058300001EE901ADFED092ABAE70021016041600C
:105840008160F3E7284402580000003938440258C8
:105850000024744A0090D0030024744C001BB74B02
:10586000494930B5484C0B1D0A681C3409681D684D
:10587000246802F00303C5F30022C1F30551C4F309
:10588000CC04002914FB02F200EE102AF8EE400AC4
:1058900075D03F4A9FED3D1AB7EE000A6BB1DFEDC0
:1058A0003D1A012B01D0022B64D002EE101A1168B0
:1058B000F8EE422A81EEA22A21E0334C283C2368EC
:1058C0009B0612D5344B246801EE901A1168C4F37C
:1058D000C104F8EE612AE34001EE903AC1F30801F9
:1058E000F8EE611A81EEA22A0BE001EE901ADFEDCC
:1058F0002B2A00BFF8EE611A116882EEA12AC1F3CB
:10590000080101EE901A1168F8EE611A40EE811A52
:1059100071EE800A62EE200AC1F3462101EE101AF0
:10592000B8EE411A31EE001AC0EE811ABCEEE11A4F
:1059300080ED001A1168C1F3064101EE101AB8EEAD
:10594000411A31EE001AC0EE811ABCEEE11A80ED68
:10595000011A1168C1F3066101EE101AB8EE411A7E
:1059600031EE000A80EE801ABCEEC10A80ED020A18
:1059700030BD04E001EE901ADFED092ABAE70021FC
:10598000016041608160F3E728440258000000395B
:10599000404402580024744A0090D0030024744C00
:1059A000001BB74B2DE9F04FA14A0546DFF87CA25A
:1059B00080F48070DFF8809289B013119F4C084307
:1059C0009C48AAF104064FF0805C4FF0005828D0A4
:1059D000DFF858B285F480670F430BF1080B4FD006
:1059E00085F400670F4360D085F480570F4372D071
:1059F00085F400570F434FF480394FF4003E69D0CF
:105A000085F400270F4373D085F480370F4370D09F
:105A100085F480460E436DD085F400420A436AD077
:105A20002AE0DAF8001001F00701052924D2DFE8A6
:105A300001F0F9AA6A259F0006A8FFF7CBFD079899
:105A400009B0BDE8F08F6846FFF768FE0098F7E7F9
:105A500003A8FFF705FF0398F2E72068C0F3C10031
:105A600022FA00F0ECE72268D2056ED561456CD1D0
:105A70001846E5E74145E3D00020E1E74846DFE787
:105A8000DBF8001001F46001B1F5800F3BD005DCBC
:105A900000294AD0B1F5001FEED174E0B1F5C00F76
:105AA000ECD0B1F5000FE7D162E0DBF8001001F0B7
:105AB000E061B1F1007F26D004DCB1B3B1F1807FA9
:105AC000DAD160E0B1F1407FD8D0B1F1806FD3D1AD
:105AD0004EE000E01BE0DAF8001001F4E041B1F51F
